{
  "contractName": "Ethique",
  "abi": [
    {
      "constant": true,
      "inputs": [],
      "name": "name",
      "outputs": [
        {
          "name": "",
          "type": "string"
        }
      ],
      "payable": false,
      "stateMutability": "view",
      "type": "function",
      "signature": "0x06fdde03"
    },
    {
      "constant": true,
      "inputs": [],
      "name": "totalSupply",
      "outputs": [
        {
          "name": "",
          "type": "uint256"
        }
      ],
      "payable": false,
      "stateMutability": "view",
      "type": "function",
      "signature": "0x18160ddd"
    },
    {
      "constant": true,
      "inputs": [],
      "name": "decimals",
      "outputs": [
        {
          "name": "",
          "type": "uint8"
        }
      ],
      "payable": false,
      "stateMutability": "view",
      "type": "function",
      "signature": "0x313ce567"
    },
    {
      "constant": true,
      "inputs": [
        {
          "name": "",
          "type": "address"
        }
      ],
      "name": "balanceOf",
      "outputs": [
        {
          "name": "",
          "type": "uint256"
        }
      ],
      "payable": false,
      "stateMutability": "view",
      "type": "function",
      "signature": "0x70a08231"
    },
    {
      "constant": true,
      "inputs": [
        {
          "name": "",
          "type": "uint256"
        }
      ],
      "name": "registeredUsers",
      "outputs": [
        {
          "name": "",
          "type": "address"
        }
      ],
      "payable": false,
      "stateMutability": "view",
      "type": "function",
      "signature": "0x7259e0f8"
    },
    {
      "constant": true,
      "inputs": [],
      "name": "symbol",
      "outputs": [
        {
          "name": "",
          "type": "string"
        }
      ],
      "payable": false,
      "stateMutability": "view",
      "type": "function",
      "signature": "0x95d89b41"
    },
    {
      "constant": true,
      "inputs": [
        {
          "name": "",
          "type": "address"
        },
        {
          "name": "",
          "type": "address"
        }
      ],
      "name": "allowance",
      "outputs": [
        {
          "name": "",
          "type": "uint256"
        }
      ],
      "payable": false,
      "stateMutability": "view",
      "type": "function",
      "signature": "0xdd62ed3e"
    },
    {
      "inputs": [
        {
          "name": "initialSupply",
          "type": "uint256"
        },
        {
          "name": "tokenName",
          "type": "string"
        },
        {
          "name": "tokenSymbol",
          "type": "string"
        }
      ],
      "payable": false,
      "stateMutability": "nonpayable",
      "type": "constructor",
      "signature": "constructor"
    },
    {
      "anonymous": false,
      "inputs": [
        {
          "indexed": true,
          "name": "from",
          "type": "address"
        },
        {
          "indexed": true,
          "name": "to",
          "type": "address"
        },
        {
          "indexed": false,
          "name": "value",
          "type": "uint256"
        }
      ],
      "name": "Transfer",
      "type": "event",
      "signature": "0xddf252ad1be2c89b69c2b068fc378daa952ba7f163c4a11628f55a4df523b3ef"
    },
    {
      "anonymous": false,
      "inputs": [
        {
          "indexed": true,
          "name": "_owner",
          "type": "address"
        },
        {
          "indexed": true,
          "name": "_spender",
          "type": "address"
        },
        {
          "indexed": false,
          "name": "_value",
          "type": "uint256"
        }
      ],
      "name": "Approval",
      "type": "event",
      "signature": "0x8c5be1e5ebec7d5bd14f71427d1e84f3dd0314c0f7b2291e5b200ac8c7c3b925"
    },
    {
      "anonymous": false,
      "inputs": [
        {
          "indexed": true,
          "name": "from",
          "type": "address"
        },
        {
          "indexed": false,
          "name": "value",
          "type": "uint256"
        }
      ],
      "name": "Burn",
      "type": "event",
      "signature": "0xcc16f5dbb4873280815c1ee09dbd06736cffcc184412cf7a71a0fdb75d397ca5"
    },
    {
      "anonymous": false,
      "inputs": [
        {
          "indexed": false,
          "name": "user",
          "type": "address"
        }
      ],
      "name": "newUser",
      "type": "event",
      "signature": "0x0cb5f653b48cf88bb5778a790a892d142dcf0a6b835d866760a0316a3895c1e9"
    },
    {
      "constant": false,
      "inputs": [
        {
          "name": "_sender",
          "type": "address"
        },
        {
          "name": "_recipient",
          "type": "address"
        },
        {
          "name": "_value",
          "type": "uint256"
        }
      ],
      "name": "interact",
      "outputs": [],
      "payable": false,
      "stateMutability": "nonpayable",
      "type": "function",
      "signature": "0x61bfc6f0"
    },
    {
      "constant": false,
      "inputs": [
        {
          "name": "_value",
          "type": "uint256"
        }
      ],
      "name": "setDmStake",
      "outputs": [],
      "payable": false,
      "stateMutability": "nonpayable",
      "type": "function",
      "signature": "0xfaa8903c"
    },
    {
      "constant": false,
      "inputs": [
        {
          "name": "_recipient",
          "type": "address"
        },
        {
          "name": "_value",
          "type": "uint256"
        },
        {
          "name": "message_id",
          "type": "uint256"
        }
      ],
      "name": "sendDm",
      "outputs": [],
      "payable": false,
      "stateMutability": "nonpayable",
      "type": "function",
      "signature": "0xdc13804b"
    },
    {
      "constant": false,
      "inputs": [
        {
          "name": "_message_id",
          "type": "uint256"
        }
      ],
      "name": "rejectDm",
      "outputs": [],
      "payable": false,
      "stateMutability": "nonpayable",
      "type": "function",
      "signature": "0xae231130"
    },
    {
      "constant": false,
      "inputs": [
        {
          "name": "_message_id",
          "type": "uint256"
        }
      ],
      "name": "acceptDm",
      "outputs": [],
      "payable": false,
      "stateMutability": "nonpayable",
      "type": "function",
      "signature": "0x8f77ba2f"
    },
    {
      "constant": false,
      "inputs": [
        {
          "name": "_newUser",
          "type": "address"
        }
      ],
      "name": "registerUser",
      "outputs": [
        {
          "name": "success",
          "type": "bool"
        }
      ],
      "payable": false,
      "stateMutability": "nonpayable",
      "type": "function",
      "signature": "0x2199d5cd"
    },
    {
      "constant": true,
      "inputs": [],
      "name": "getRegisteredUsers",
      "outputs": [
        {
          "name": "users",
          "type": "address[]"
        }
      ],
      "payable": false,
      "stateMutability": "view",
      "type": "function",
      "signature": "0x7073c072"
    },
    {
      "constant": false,
      "inputs": [
        {
          "name": "_to",
          "type": "address"
        },
        {
          "name": "_value",
          "type": "uint256"
        }
      ],
      "name": "issueToken",
      "outputs": [],
      "payable": false,
      "stateMutability": "nonpayable",
      "type": "function",
      "signature": "0xe74a84ea"
    },
    {
      "constant": false,
      "inputs": [
        {
          "name": "_new",
          "type": "address"
        }
      ],
      "name": "addToOwner",
      "outputs": [],
      "payable": false,
      "stateMutability": "nonpayable",
      "type": "function",
      "signature": "0x4e26c94a"
    },
    {
      "constant": false,
      "inputs": [
        {
          "name": "_to",
          "type": "address"
        },
        {
          "name": "_value",
          "type": "uint256"
        }
      ],
      "name": "transfer",
      "outputs": [
        {
          "name": "success",
          "type": "bool"
        }
      ],
      "payable": false,
      "stateMutability": "nonpayable",
      "type": "function",
      "signature": "0xa9059cbb"
    },
    {
      "constant": false,
      "inputs": [
        {
          "name": "_from",
          "type": "address"
        },
        {
          "name": "_to",
          "type": "address"
        },
        {
          "name": "_value",
          "type": "uint256"
        }
      ],
      "name": "transferFrom",
      "outputs": [
        {
          "name": "success",
          "type": "bool"
        }
      ],
      "payable": false,
      "stateMutability": "nonpayable",
      "type": "function",
      "signature": "0x23b872dd"
    },
    {
      "constant": false,
      "inputs": [
        {
          "name": "_spender",
          "type": "address"
        },
        {
          "name": "_value",
          "type": "uint256"
        }
      ],
      "name": "approve",
      "outputs": [
        {
          "name": "success",
          "type": "bool"
        }
      ],
      "payable": false,
      "stateMutability": "nonpayable",
      "type": "function",
      "signature": "0x095ea7b3"
    },
    {
      "constant": false,
      "inputs": [
        {
          "name": "_spender",
          "type": "address"
        },
        {
          "name": "_value",
          "type": "uint256"
        },
        {
          "name": "_extraData",
          "type": "bytes"
        }
      ],
      "name": "approveAndCall",
      "outputs": [
        {
          "name": "success",
          "type": "bool"
        }
      ],
      "payable": false,
      "stateMutability": "nonpayable",
      "type": "function",
      "signature": "0xcae9ca51"
    }
  ],
  "bytecode": "0x60806040526000600560006101000a81548160ff021916908360ff1602179055503480156200002d57600080fd5b50604051620022de380380620022de833981018060405260608110156200005357600080fd5b810190808051906020019092919080516401000000008111156200007657600080fd5b828101905060208101848111156200008d57600080fd5b8151856001820283011164010000000082111715620000ab57600080fd5b50509291906020018051640100000000811115620000c857600080fd5b82810190506020810184811115620000df57600080fd5b8151856001820283011164010000000082111715620000fd57600080fd5b505092919050505082600281905550600254600660003373ffffffffffffffffffffffffffffffffffffffff1673ffffffffffffffffffffffffffffffffffffffff1681526020019081526020016000208190555081600090805190602001906200016a92919062000539565b5080600190805190602001906200018392919062000539565b506001600960003373ffffffffffffffffffffffffffffffffffffffff1673ffffffffffffffffffffffffffffffffffffffff16815260200190815260200160002060006101000a81548160ff021916908315150217905550620001fe33306501d1a94a200062000207640100000000026401000000009004565b505050620005e8565b600073ffffffffffffffffffffffffffffffffffffffff168273ffffffffffffffffffffffffffffffffffffffff16141515156200024457600080fd5b80600660008573ffffffffffffffffffffffffffffffffffffffff1673ffffffffffffffffffffffffffffffffffffffff16815260200190815260200160002054101515156200029357600080fd5b600660008373ffffffffffffffffffffffffffffffffffffffff1673ffffffffffffffffffffffffffffffffffffffff1681526020019081526020016000205481600660008573ffffffffffffffffffffffffffffffffffffffff1673ffffffffffffffffffffffffffffffffffffffff1681526020019081526020016000205401101515156200032357600080fd5b6000600660008473ffffffffffffffffffffffffffffffffffffffff1673ffffffffffffffffffffffffffffffffffffffff16815260200190815260200160002054600660008673ffffffffffffffffffffffffffffffffffffffff1673ffffffffffffffffffffffffffffffffffffffff1681526020019081526020016000205401905081600660008673ffffffffffffffffffffffffffffffffffffffff1673ffffffffffffffffffffffffffffffffffffffff1681526020019081526020016000206000828254039250508190555081600660008573ffffffffffffffffffffffffffffffffffffffff1673ffffffffffffffffffffffffffffffffffffffff168152602001908152602001600020600082825401925050819055508273ffffffffffffffffffffffffffffffffffffffff168473ffffffffffffffffffffffffffffffffffffffff167fddf252ad1be2c89b69c2b068fc378daa952ba7f163c4a11628f55a4df523b3ef846040518082815260200191505060405180910390a380600660008573ffffffffffffffffffffffffffffffffffffffff1673ffffffffffffffffffffffffffffffffffffffff16815260200190815260200160002054600660008773ffffffffffffffffffffffffffffffffffffffff1673ffffffffffffffffffffffffffffffffffffffff16815260200190815260200160002054011415156200053357fe5b50505050565b828054600181600116156101000203166002900490600052602060002090601f016020900481019282601f106200057c57805160ff1916838001178555620005ad565b82800160010185558215620005ad579182015b82811115620005ac5782518255916020019190600101906200058f565b5b509050620005bc9190620005c0565b5090565b620005e591905b80821115620005e1576000816000905550600101620005c7565b5090565b90565b611ce680620005f86000396000f3fe608060405260043610610112576000357c0100000000000000000000000000000000000000000000000000000000900463ffffffff16806306fdde0314610117578063095ea7b3146101a757806318160ddd1461021a5780632199d5cd1461024557806323b872dd146102ae578063313ce567146103415780634e26c94a1461037257806361bfc6f0146103c35780637073c0721461043e57806370a08231146104aa5780637259e0f81461050f5780638f77ba2f1461058a57806395d89b41146105c5578063a9059cbb14610655578063ae231130146106c8578063cae9ca5114610703578063dc13804b1461080d578063dd62ed3e14610872578063e74a84ea146108f7578063faa8903c14610952575b600080fd5b34801561012357600080fd5b5061012c61098d565b6040518080602001828103825283818151815260200191508051906020019080838360005b8381101561016c578082015181840152602081019050610151565b50505050905090810190601f1680156101995780820380516001836020036101000a031916815260200191505b509250505060405180910390f35b3480156101b357600080fd5b50610200600480360360408110156101ca57600080fd5b81019080803573ffffffffffffffffffffffffffffffffffffffff16906020019092919080359060200190929190505050610a2b565b604051808215151515815260200191505060405180910390f35b34801561022657600080fd5b5061022f610b1d565b6040518082815260200191505060405180910390f35b34801561025157600080fd5b506102946004803603602081101561026857600080fd5b81019080803573ffffffffffffffffffffffffffffffffffffffff169060200190929190505050610b23565b604051808215151515815260200191505060405180910390f35b3480156102ba57600080fd5b50610327600480360360608110156102d157600080fd5b81019080803573ffffffffffffffffffffffffffffffffffffffff169060200190929190803573ffffffffffffffffffffffffffffffffffffffff16906020019092919080359060200190929190505050610d26565b604051808215151515815260200191505060405180910390f35b34801561034d57600080fd5b50610356610e53565b604051808260ff1660ff16815260200191505060405180910390f35b34801561037e57600080fd5b506103c16004803603602081101561039557600080fd5b81019080803573ffffffffffffffffffffffffffffffffffffffff169060200190929190505050610e66565b005b3480156103cf57600080fd5b5061043c600480360360608110156103e657600080fd5b81019080803573ffffffffffffffffffffffffffffffffffffffff169060200190929190803573ffffffffffffffffffffffffffffffffffffffff16906020019092919080359060200190929190505050610fb4565b005b34801561044a57600080fd5b506104536110b7565b6040518080602001828103825283818151815260200191508051906020019060200280838360005b8381101561049657808201518184015260208101905061047b565b505050509050019250505060405180910390f35b3480156104b657600080fd5b506104f9600480360360208110156104cd57600080fd5b81019080803573ffffffffffffffffffffffffffffffffffffffff169060200190929190505050611145565b6040518082815260200191505060405180910390f35b34801561051b57600080fd5b506105486004803603602081101561053257600080fd5b810190808035906020019092919050505061115d565b604051808273ffffffffffffffffffffffffffffffffffffffff1673ffffffffffffffffffffffffffffffffffffffff16815260200191505060405180910390f35b34801561059657600080fd5b506105c3600480360360208110156105ad57600080fd5b810190808035906020019092919050505061119b565b005b3480156105d157600080fd5b506105da611285565b6040518080602001828103825283818151815260200191508051906020019080838360005b8381101561061a5780820151818401526020810190506105ff565b50505050905090810190601f1680156106475780820380516001836020036101000a031916815260200191505b509250505060405180910390f35b34801561066157600080fd5b506106ae6004803603604081101561067857600080fd5b81019080803573ffffffffffffffffffffffffffffffffffffffff16906020019092919080359060200190929190505050611323565b604051808215151515815260200191505060405180910390f35b3480156106d457600080fd5b50610701600480360360208110156106eb57600080fd5b810190808035906020019092919050505061133a565b005b34801561070f57600080fd5b506107f36004803603606081101561072657600080fd5b81019080803573ffffffffffffffffffffffffffffffffffffffff169060200190929190803590602001909291908035906020019064010000000081111561076d57600080fd5b82018360208201111561077f57600080fd5b803590602001918460018302840111640100000000831117156107a157600080fd5b91908080601f016020809104026020016040519081016040528093929190818152602001838380828437600081840152601f19601f8201169050808301925050505050505091929192905050506113e6565b604051808215151515815260200191505060405180910390f35b34801561081957600080fd5b506108706004803603606081101561083057600080fd5b81019080803573ffffffffffffffffffffffffffffffffffffffff169060200190929190803590602001909291908035906020019092919050505061156a565b005b34801561087e57600080fd5b506108e16004803603604081101561089557600080fd5b81019080803573ffffffffffffffffffffffffffffffffffffffff169060200190929190803573ffffffffffffffffffffffffffffffffffffffff16906020019092919050505061172b565b6040518082815260200191505060405180910390f35b34801561090357600080fd5b506109506004803603604081101561091a57600080fd5b81019080803573ffffffffffffffffffffffffffffffffffffffff16906020019092919080359060200190929190505050611750565b005b34801561095e57600080fd5b5061098b6004803603602081101561097557600080fd5b8101908080359060200190929190505050611852565b005b60008054600181600116156101000203166002900480601f016020809104026020016040519081016040528092919081815260200182805460018160011615610100020316600290048015610a235780601f106109f857610100808354040283529160200191610a23565b820191906000526020600020905b815481529060010190602001808311610a0657829003601f168201915b505050505081565b600081600760003373ffffffffffffffffffffffffffffffffffffffff1673ffffffffffffffffffffffffffffffffffffffff16815260200190815260200160002060008573ffffffffffffffffffffffffffffffffffffffff1673ffffffffffffffffffffffffffffffffffffffff168152602001908152602001600020819055508273ffffffffffffffffffffffffffffffffffffffff163373ffffffffffffffffffffffffffffffffffffffff167f8c5be1e5ebec7d5bd14f71427d1e84f3dd0314c0f7b2291e5b200ac8c7c3b925846040518082815260200191505060405180910390a36001905092915050565b60025481565b600080600860008473ffffffffffffffffffffffffffffffffffffffff1673ffffffffffffffffffffffffffffffffffffffff16815260200190815260200160002060006101000a81548160ff02191690831515021790551515610bef576040517f08c379a00000000000000000000000000000000000000000000000000000000081526004018080602001828103825260158152602001807f6f6e6c79206f6e6520726567697374726174696f6e000000000000000000000081525060200191505060405180910390fd5b60048290806001815401808255809150509060018203906000526020600020016000909192909190916101000a81548173ffffffffffffffffffffffffffffffffffffffff021916908373ffffffffffffffffffffffffffffffffffffffff160217905550506001600860008473ffffffffffffffffffffffffffffffffffffffff1673ffffffffffffffffffffffffffffffffffffffff16815260200190815260200160002060006101000a81548160ff021916908315150217905550610cba30836101f461198c565b7f0cb5f653b48cf88bb5778a790a892d142dcf0a6b835d866760a0316a3895c1e982604051808273ffffffffffffffffffffffffffffffffffffffff1673ffffffffffffffffffffffffffffffffffffffff16815260200191505060405180910390a160019050919050565b6000600760008573ffffffffffffffffffffffffffffffffffffffff1673ffffffffffffffffffffffffffffffffffffffff16815260200190815260200160002060003373ffffffffffffffffffffffffffffffffffffffff1673ffffffffffffffffffffffffffffffffffffffff168152602001908152602001600020548211151515610db357600080fd5b81600760008673ffffffffffffffffffffffffffffffffffffffff1673ffffffffffffffffffffffffffffffffffffffff16815260200190815260200160002060003373ffffffffffffffffffffffffffffffffffffffff1673ffffffffffffffffffffffffffffffffffffffff16815260200190815260200160002060008282540392505081905550610e4884848461198c565b600190509392505050565b600560009054906101000a900460ff1681565b336001600960008373ffffffffffffffffffffffffffffffffffffffff1673ffffffffffffffffffffffffffffffffffffffff16815260200190815260200160002060006101000a81548160ff02191690831515021790551515610f58576040517f08c379a00000000000000000000000000000000000000000000000000000000081526004018080602001828103825260218152602001807f706c6561736520726567697374657220746f20757365207468697320726f757481526020017f650000000000000000000000000000000000000000000000000000000000000081525060400191505060405180910390fd5b6001600960008473ffffffffffffffffffffffffffffffffffffffff1673ffffffffffffffffffffffffffffffffffffffff16815260200190815260200160002060006101000a81548160ff0219169083151502179055505050565b826001600860008373ffffffffffffffffffffffffffffffffffffffff1673ffffffffffffffffffffffffffffffffffffffff16815260200190815260200160002060006101000a81548160ff021916908315150217905515156110a6576040517f08c379a00000000000000000000000000000000000000000000000000000000081526004018080602001828103825260218152602001807f706c6561736520726567697374657220746f20757365207468697320726f757481526020017f650000000000000000000000000000000000000000000000000000000000000081525060400191505060405180910390fd5b6110b184848461198c565b50505050565b6060600480548060200260200160405190810160405280929190818152602001828054801561113b57602002820191906000526020600020905b8160009054906101000a900473ffffffffffffffffffffffffffffffffffffffff1673ffffffffffffffffffffffffffffffffffffffff16815260200190600101908083116110f1575b5050505050905090565b60066020528060005260406000206000915090505481565b60048181548110151561116c57fe5b906000526020600020016000915054906101000a900473ffffffffffffffffffffffffffffffffffffffff1681565b6000600c60008381526020019081526020016000205490506111f130600d600085815260200190815260200160002060009054906101000a900473ffffffffffffffffffffffffffffffffffffffff168361198c565b80600b60003373ffffffffffffffffffffffffffffffffffffffff1673ffffffffffffffffffffffffffffffffffffffff1681526020019081526020016000205403600b60003373ffffffffffffffffffffffffffffffffffffffff1673ffffffffffffffffffffffffffffffffffffffff1681526020019081526020016000208190555080600354036003819055505050565b60018054600181600116156101000203166002900480601f01602080910402602001604051908101604052809291908181526020018280546001816001161561010002031660029004801561131b5780601f106112f05761010080835404028352916020019161131b565b820191906000526020600020905b8154815290600101906020018083116112fe57829003601f168201915b505050505081565b600061133033848461198c565b6001905092915050565b6000600c600083815260200190815260200160002054905080600b60003373ffffffffffffffffffffffffffffffffffffffff1673ffffffffffffffffffffffffffffffffffffffff1681526020019081526020016000205403600b60003373ffffffffffffffffffffffffffffffffffffffff1673ffffffffffffffffffffffffffffffffffffffff1681526020019081526020016000208190555080600354036003819055505050565b6000808490506113f68585610a2b565b15611561578073ffffffffffffffffffffffffffffffffffffffff16638f4ffcb1338630876040518563ffffffff167c0100000000000000000000000000000000000000000000000000000000028152600401808573ffffffffffffffffffffffffffffffffffffffff1673ffffffffffffffffffffffffffffffffffffffff1681526020018481526020018373ffffffffffffffffffffffffffffffffffffffff1673ffffffffffffffffffffffffffffffffffffffff16815260200180602001828103825283818151815260200191508051906020019080838360005b838110156114f05780820151818401526020810190506114d5565b50505050905090810190601f16801561151d5780820380516001836020036101000a031916815260200191505b5095505050505050600060405180830381600087803b15801561153f57600080fd5b505af1158015611553573d6000803e3d6000fd5b505050506001915050611563565b505b9392505050565b600a60008473ffffffffffffffffffffffffffffffffffffffff1673ffffffffffffffffffffffffffffffffffffffff168152602001908152602001600020548210151515611621576040517f08c379a000000000000000000000000000000000000000000000000000000000815260040180806020018281038252601d8152602001807f6d757374206d6565742075736572207265717569726564207374616b6500000081525060200191505060405180910390fd5b61162c33308461198c565b81600b60008573ffffffffffffffffffffffffffffffffffffffff1673ffffffffffffffffffffffffffffffffffffffff1681526020019081526020016000205401600b60008573ffffffffffffffffffffffffffffffffffffffff1673ffffffffffffffffffffffffffffffffffffffff16815260200190815260200160002081905550816003540160038190555081600c60008381526020019081526020016000208190555033600d600083815260200190815260200160002060006101000a81548173ffffffffffffffffffffffffffffffffffffffff021916908373ffffffffffffffffffffffffffffffffffffffff160217905550505050565b6007602052816000526040600020602052806000526040600020600091509150505481565b336001600960008373ffffffffffffffffffffffffffffffffffffffff1673ffffffffffffffffffffffffffffffffffffffff16815260200190815260200160002060006101000a81548160ff02191690831515021790551515611842576040517f08c379a00000000000000000000000000000000000000000000000000000000081526004018080602001828103825260218152602001807f706c6561736520726567697374657220746f20757365207468697320726f757481526020017f650000000000000000000000000000000000000000000000000000000000000081525060400191505060405180910390fd5b61184d30848461198c565b505050565b336001600860008373ffffffffffffffffffffffffffffffffffffffff1673ffffffffffffffffffffffffffffffffffffffff16815260200190815260200160002060006101000a81548160ff02191690831515021790551515611944576040517f08c379a00000000000000000000000000000000000000000000000000000000081526004018080602001828103825260218152602001807f706c6561736520726567697374657220746f20757365207468697320726f757481526020017f650000000000000000000000000000000000000000000000000000000000000081525060400191505060405180910390fd5b81600a60003373ffffffffffffffffffffffffffffffffffffffff1673ffffffffffffffffffffffffffffffffffffffff168152602001908152602001600020819055505050565b600073ffffffffffffffffffffffffffffffffffffffff168273ffffffffffffffffffffffffffffffffffffffff16141515156119c857600080fd5b80600660008573ffffffffffffffffffffffffffffffffffffffff1673ffffffffffffffffffffffffffffffffffffffff1681526020019081526020016000205410151515611a1657600080fd5b600660008373ffffffffffffffffffffffffffffffffffffffff1673ffffffffffffffffffffffffffffffffffffffff1681526020019081526020016000205481600660008573ffffffffffffffffffffffffffffffffffffffff1673ffffffffffffffffffffffffffffffffffffffff168152602001908152602001600020540110151515611aa557600080fd5b6000600660008473ffffffffffffffffffffffffffffffffffffffff1673ffffffffffffffffffffffffffffffffffffffff16815260200190815260200160002054600660008673ffffffffffffffffffffffffffffffffffffffff1673ffffffffffffffffffffffffffffffffffffffff1681526020019081526020016000205401905081600660008673ffffffffffffffffffffffffffffffffffffffff1673ffffffffffffffffffffffffffffffffffffffff1681526020019081526020016000206000828254039250508190555081600660008573ffffffffffffffffffffffffffffffffffffffff1673ffffffffffffffffffffffffffffffffffffffff168152602001908152602001600020600082825401925050819055508273ffffffffffffffffffffffffffffffffffffffff168473ffffffffffffffffffffffffffffffffffffffff167fddf252ad1be2c89b69c2b068fc378daa952ba7f163c4a11628f55a4df523b3ef846040518082815260200191505060405180910390a380600660008573ffffffffffffffffffffffffffffffffffffffff1673ffffffffffffffffffffffffffffffffffffffff16815260200190815260200160002054600660008773ffffffffffffffffffffffffffffffffffffffff1673ffffffffffffffffffffffffffffffffffffffff1681526020019081526020016000205401141515611cb457fe5b5050505056fea165627a7a72305820e80af48a1b62296b3f021bb050e8827be2d0962fa084d3b7a2aa2eb577fcef360029",
  "source": "pragma solidity >=0.4.24;\r\n\r\ninterface tokenRecipient { \r\n    function receiveApproval(address _from, uint256 _value, address _token, bytes calldata _extraData) external; \r\n}\r\n\r\ncontract Ethique {\r\n    \r\n    // storage \r\n    string public name;\r\n    string public symbol;\r\n    uint256 public totalSupply;\r\n    uint256 dmStakeReserve;\r\n    address[] public registeredUsers;\r\n    uint8 public decimals = 0;\r\n\r\n    mapping (address => uint256) public balanceOf;\r\n    mapping (address => mapping (address => uint256)) public allowance;\r\n    mapping (address => bool) registrationIndex;\r\n    mapping (address => bool) owners;\r\n    mapping (address => uint) dmStake;\r\n    mapping (address => uint) dmDeposited;\r\n    mapping (uint => uint) msgToStake;\r\n    mapping (uint => address) msgToSender;\r\n\r\n    // events\r\n    event Transfer(address indexed from, address indexed to, uint256 value);\r\n    event Approval(address indexed _owner, address indexed _spender, uint256 _value);\r\n    event Burn(address indexed from, uint256 value);\r\n    event newUser(address user);\r\n\r\n    constructor(\r\n        uint256 initialSupply,\r\n        string memory tokenName,\r\n        string memory tokenSymbol\r\n    ) public {\r\n        totalSupply = initialSupply;\r\n        balanceOf[msg.sender] = totalSupply;\r\n        name = tokenName;\r\n        symbol = tokenSymbol;\r\n        owners[msg.sender] = true;\r\n        _transfer(msg.sender, address(this), 2000000000000);\r\n    }\r\n\r\n    function interact(address _sender, address _recipient, uint _value) public onlyRegisteredUser(_sender) {\r\n        _transfer(_sender, _recipient, _value);\r\n    }\r\n\r\n    function setDmStake(uint _value) public onlyRegisteredUser(msg.sender) {\r\n        dmStake[msg.sender] = _value;\r\n    }\r\n\r\n    function sendDm(address _recipient, uint _value, uint message_id) public {\r\n        require(_value >= dmStake[_recipient], \"must meet user required stake\");\r\n        _transfer(msg.sender, address(this), _value);\r\n        dmDeposited[_recipient] = dmDeposited[_recipient] + _value;\r\n        dmStakeReserve = dmStakeReserve + _value;\r\n        msgToStake[message_id] = _value;\r\n        msgToSender[message_id] = msg.sender;\r\n    }\r\n\r\n    function rejectDm(uint _message_id) public {\r\n        uint stake = msgToStake[_message_id];\r\n        dmDeposited[msg.sender] = dmDeposited[msg.sender] - stake;\r\n        dmStakeReserve = dmStakeReserve - stake;\r\n    }\r\n\r\n    function acceptDm(uint _message_id) public {\r\n        uint stake = msgToStake[_message_id];\r\n        _transfer(address(this), msgToSender[_message_id], stake);\r\n        dmDeposited[msg.sender] = dmDeposited[msg.sender] - stake;\r\n        dmStakeReserve = dmStakeReserve - stake;\r\n    }\r\n\r\n    function registerUser(address payable _newUser) public returns (bool success) {\r\n        require(registrationIndex[_newUser] = false, \"only one registration\");\r\n        registeredUsers.push(_newUser);\r\n        registrationIndex[_newUser] = true;\r\n        _transfer(address(this), _newUser, 500);\r\n        emit newUser(_newUser);\r\n        return true;\r\n    }\r\n\r\n    function getRegisteredUsers() public view returns (address[] memory users) {\r\n        return registeredUsers;\r\n    }\r\n\r\n    function issueToken(address _to, uint _value) public onlyOwner(msg.sender) {\r\n        _transfer(address(this), _to, _value);\r\n    }\r\n\r\n    function addToOwner(address _new) public onlyOwner(msg.sender) {\r\n        owners[_new] = true;\r\n    }\r\n\r\n    modifier onlyRegisteredUser(address _user) {\r\n        require(registrationIndex[_user] = true, \"please register to use this route\");\r\n        _;\r\n    }\r\n\r\n    modifier onlyOwner(address _user) {\r\n        require(owners[_user] = true, \"please register to use this route\");\r\n        _;\r\n    }\r\n\r\n    function _transfer(address _from, address _to, uint _value) internal {\r\n        require(_to != address(0x0));\r\n        require(balanceOf[_from] >= _value);\r\n        require(balanceOf[_to] + _value >= balanceOf[_to]);\r\n        uint previousBalances = balanceOf[_from] + balanceOf[_to];\r\n        balanceOf[_from] -= _value;\r\n        balanceOf[_to] += _value;\r\n        emit Transfer(_from, _to, _value);\r\n        assert(balanceOf[_from] + balanceOf[_to] == previousBalances);\r\n    }\r\n\r\n    function transfer(address _to, uint256 _value) public returns (bool success) {\r\n        _transfer(msg.sender, _to, _value);\r\n        return true;\r\n    }\r\n\r\n    function transferFrom(address _from, address _to, uint256 _value) public returns (bool success) {\r\n        require(_value <= allowance[_from][msg.sender]);     // Check allowance\r\n        allowance[_from][msg.sender] -= _value;\r\n        _transfer(_from, _to, _value);\r\n        return true;\r\n    }\r\n\r\n    function approve(address _spender, uint256 _value) public\r\n        returns (bool success) {\r\n        allowance[msg.sender][_spender] = _value;\r\n        emit Approval(msg.sender, _spender, _value);\r\n        return true;\r\n    }\r\n\r\n    function approveAndCall(address _spender, uint256 _value, bytes memory _extraData)\r\n        public\r\n        returns (bool success) {\r\n        tokenRecipient spender = tokenRecipient(_spender);\r\n        if (approve(_spender, _value)) {\r\n            spender.receiveApproval(msg.sender, _value, address(this), _extraData);\r\n            return true;\r\n        }\r\n    }\r\n\r\n    // Pausable?\r\n}",
  "sourcePath": "/mnt/c/Users/Bradley/broceliande/ETHique/contracts/Ethique.sol",
  "compiler": {
    "name": "solc",
    "version": "0.5.0+commit.1d4f565a.Emscripten.clang"
  },
  "schemaVersion": "3.0.0",
  "updatedAt": "2019-03-09T20:38:38.813Z",
  "devdoc": {
    "methods": {}
  },
  "userdoc": {
    "methods": {}
  }
}