{
  "contractName": "ImageRegistry",
  "abi": [
    {
      "constant": true,
      "inputs": [
        {
          "name": "",
          "type": "address"
        }
      ],
      "name": "allAssets",
      "outputs": [
        {
          "name": "ref",
          "type": "address"
        },
        {
          "name": "id",
          "type": "uint64"
        }
      ],
      "payable": false,
      "stateMutability": "view",
      "type": "function"
    },
    {
      "constant": true,
      "inputs": [],
      "name": "owner",
      "outputs": [
        {
          "name": "",
          "type": "address"
        }
      ],
      "payable": false,
      "stateMutability": "view",
      "type": "function"
    },
    {
      "inputs": [],
      "payable": false,
      "stateMutability": "nonpayable",
      "type": "constructor"
    },
    {
      "anonymous": false,
      "inputs": [
        {
          "indexed": true,
          "name": "ref",
          "type": "address"
        },
        {
          "indexed": false,
          "name": "id",
          "type": "uint64"
        },
        {
          "indexed": false,
          "name": "sender",
          "type": "address"
        }
      ],
      "name": "AssetAdded",
      "type": "event"
    },
    {
      "anonymous": false,
      "inputs": [
        {
          "indexed": true,
          "name": "ref",
          "type": "address"
        },
        {
          "indexed": false,
          "name": "sender",
          "type": "address"
        }
      ],
      "name": "AssetRemoved",
      "type": "event"
    },
    {
      "constant": false,
      "inputs": [
        {
          "name": "_ref",
          "type": "address"
        },
        {
          "name": "_id",
          "type": "uint64"
        }
      ],
      "name": "addAsset",
      "outputs": [],
      "payable": false,
      "stateMutability": "nonpayable",
      "type": "function"
    },
    {
      "constant": false,
      "inputs": [
        {
          "name": "ref",
          "type": "address"
        }
      ],
      "name": "removeAsset",
      "outputs": [],
      "payable": false,
      "stateMutability": "nonpayable",
      "type": "function"
    },
    {
      "constant": true,
      "inputs": [
        {
          "name": "ref",
          "type": "address"
        }
      ],
      "name": "getAssetByHash",
      "outputs": [
        {
          "name": "",
          "type": "address"
        },
        {
          "name": "",
          "type": "uint64"
        }
      ],
      "payable": false,
      "stateMutability": "view",
      "type": "function"
    }
  ],
  "bytecode": "0x608060405234801561001057600080fd5b50336000806101000a81548173ffffffffffffffffffffffffffffffffffffffff021916908373ffffffffffffffffffffffffffffffffffffffff16021790555061077b806100606000396000f30060806040526004361061006d576000357c0100000000000000000000000000000000000000000000000000000000900463ffffffff1680634a5e42b1146100725780635eaabaf3146100b557806373f02d3d146101535780638da5cb5b146101f1578063b434283f14610248575b600080fd5b34801561007e57600080fd5b506100b3600480360381019080803573ffffffffffffffffffffffffffffffffffffffff16906020019092919050505061029f565b005b3480156100c157600080fd5b506100f6600480360381019080803573ffffffffffffffffffffffffffffffffffffffff169060200190929190505050610485565b604051808373ffffffffffffffffffffffffffffffffffffffff1673ffffffffffffffffffffffffffffffffffffffff1681526020018267ffffffffffffffff1667ffffffffffffffff1681526020019250505060405180910390f35b34801561015f57600080fd5b50610194600480360381019080803573ffffffffffffffffffffffffffffffffffffffff16906020019092919050505061054b565b604051808373ffffffffffffffffffffffffffffffffffffffff1673ffffffffffffffffffffffffffffffffffffffff1681526020018267ffffffffffffffff1667ffffffffffffffff1681526020019250505060405180910390f35b3480156101fd57600080fd5b506102066105a3565b604051808273ffffffffffffffffffffffffffffffffffffffff1673ffffffffffffffffffffffffffffffffffffffff16815260200191505060405180910390f35b34801561025457600080fd5b5061029d600480360381019080803573ffffffffffffffffffffffffffffffffffffffff169060200190929190803567ffffffffffffffff1690602001909291905050506105c8565b005b3373ffffffffffffffffffffffffffffffffffffffff166000809054906101000a900473ffffffffffffffffffffffffffffffffffffffff1673ffffffffffffffffffffffffffffffffffffffff161415156102fa57600080fd5b806000600160008373ffffffffffffffffffffffffffffffffffffffff1673ffffffffffffffffffffffffffffffffffffffff16815260200190815260200160002060000160009054906101000a900473ffffffffffffffffffffffffffffffffffffffff1673ffffffffffffffffffffffffffffffffffffffff161415151561038357600080fd5b600160008373ffffffffffffffffffffffffffffffffffffffff1673ffffffffffffffffffffffffffffffffffffffff168152602001908152602001600020600080820160006101000a81549073ffffffffffffffffffffffffffffffffffffffff02191690556000820160146101000a81549067ffffffffffffffff021916905550508173ffffffffffffffffffffffffffffffffffffffff167f0fa1e4606af435f32f05b3804033d2933e691fab32ee74d2db6fa82d2741f1ea33604051808273ffffffffffffffffffffffffffffffffffffffff1673ffffffffffffffffffffffffffffffffffffffff16815260200191505060405180910390a25050565b600080600160008473ffffffffffffffffffffffffffffffffffffffff1673ffffffffffffffffffffffffffffffffffffffff16815260200190815260200160002060000160009054906101000a900473ffffffffffffffffffffffffffffffffffffffff16600160008573ffffffffffffffffffffffffffffffffffffffff1673ffffffffffffffffffffffffffffffffffffffff16815260200190815260200160002060000160149054906101000a900467ffffffffffffffff1691509150915091565b60016020528060005260406000206000915090508060000160009054906101000a900473ffffffffffffffffffffffffffffffffffffffff16908060000160149054906101000a900467ffffffffffffffff16905082565b6000809054906101000a900473ffffffffffffffffffffffffffffffffffffffff1681565b60408051908101604052808373ffffffffffffffffffffffffffffffffffffffff1681526020018267ffffffffffffffff16815250600160008473ffffffffffffffffffffffffffffffffffffffff1673ffffffffffffffffffffffffffffffffffffffff16815260200190815260200160002060008201518160000160006101000a81548173ffffffffffffffffffffffffffffffffffffffff021916908373ffffffffffffffffffffffffffffffffffffffff16021790555060208201518160000160146101000a81548167ffffffffffffffff021916908367ffffffffffffffff1602179055509050508173ffffffffffffffffffffffffffffffffffffffff167f9f8ac3bd4dafeee4322998d9f3b2e6d3ddceee9433f65f2ffa246c18d579afe68233604051808367ffffffffffffffff1667ffffffffffffffff1681526020018273ffffffffffffffffffffffffffffffffffffffff1673ffffffffffffffffffffffffffffffffffffffff1681526020019250505060405180910390a250505600a165627a7a72305820d7d899e452288342a978174286157bf3a20bc46581bb88a966fd1ef2ca20a82d0029",
  "source": "pragma solidity ^0.4.24;\r\n\r\n/**\r\n * @title ImageRegistry\r\n * @dev A quick example contract to show dapp interactions with events\r\n */\r\ncontract ImageRegistry {\r\n  address public owner;\r\n\r\n  /// @dev Events\r\n  event AssetAdded(address indexed ref, uint64 id, address sender);\r\n  event AssetRemoved(address indexed ref, address sender);\r\n\r\n  struct Asset {\r\n    address ref;\r\n    uint64 id;\r\n  }\r\n\r\n  mapping(address => Asset) public allAssets;\r\n\r\n  constructor() public {\r\n    owner = msg.sender;\r\n  }\r\n\r\n  modifier onlyAdmin {\r\n    require(owner == msg.sender);\r\n    _;\r\n  }\r\n\r\n  modifier assetExists(address ref) {\r\n    require(allAssets[ref].ref != 0);\r\n    _;\r\n  }\r\n\r\n  function addAsset(address _ref, uint64 _id) public {\r\n    allAssets[_ref] = Asset(_ref, _id);\r\n    emit AssetAdded(_ref, _id, msg.sender);\r\n  }\r\n\r\n  function removeAsset(address ref) public onlyAdmin assetExists(ref) {\r\n    delete allAssets[ref];\r\n    emit AssetRemoved(ref, msg.sender);\r\n  }\r\n\r\n  function getAssetByHash(address ref) public view returns (address, uint64) {\r\n    return (allAssets[ref].ref, allAssets[ref].id);\r\n  }\r\n}\r\n",
  "sourcePath": "/Users/trevorclarke/gitlab/trufflecon-demo-dapp/contracts/ImageRegistry.sol",
  "compiler": {
    "name": "solc",
    "version": "0.4.24+commit.e67f0147.Emscripten.clang"
  },
  "schemaVersion": "2.0.1",
  "updatedAt": "2018-10-04T08:36:53.957Z"
}