{
  "contractName": "ImageRegistry",
  "abi": [
    {
      "constant": true,
      "inputs": [],
      "name": "total",
      "outputs": [
        {
          "name": "",
          "type": "uint256"
        }
      ],
      "payable": false,
      "stateMutability": "view",
      "type": "function"
    },
    {
      "constant": true,
      "inputs": [
        {
          "name": "",
          "type": "address"
        }
      ],
      "name": "allAssets",
      "outputs": [
        {
          "name": "",
          "type": "uint256"
        }
      ],
      "payable": false,
      "stateMutability": "view",
      "type": "function"
    },
    {
      "constant": true,
      "inputs": [],
      "name": "owner",
      "outputs": [
        {
          "name": "",
          "type": "address"
        }
      ],
      "payable": false,
      "stateMutability": "view",
      "type": "function"
    },
    {
      "inputs": [],
      "payable": false,
      "stateMutability": "nonpayable",
      "type": "constructor"
    },
    {
      "anonymous": false,
      "inputs": [
        {
          "indexed": true,
          "name": "ref",
          "type": "address"
        },
        {
          "indexed": false,
          "name": "id",
          "type": "uint64"
        },
        {
          "indexed": false,
          "name": "sender",
          "type": "address"
        }
      ],
      "name": "AssetAdded",
      "type": "event"
    },
    {
      "anonymous": false,
      "inputs": [
        {
          "indexed": true,
          "name": "ref",
          "type": "address"
        },
        {
          "indexed": false,
          "name": "sender",
          "type": "address"
        }
      ],
      "name": "AssetRemoved",
      "type": "event"
    },
    {
      "constant": false,
      "inputs": [
        {
          "name": "ref",
          "type": "address"
        },
        {
          "name": "id",
          "type": "uint64"
        }
      ],
      "name": "addAsset",
      "outputs": [],
      "payable": false,
      "stateMutability": "nonpayable",
      "type": "function"
    },
    {
      "constant": false,
      "inputs": [
        {
          "name": "ref",
          "type": "address"
        }
      ],
      "name": "removeAsset",
      "outputs": [],
      "payable": false,
      "stateMutability": "nonpayable",
      "type": "function"
    }
  ],
  "bytecode": "0x608060405234801561001057600080fd5b50336000806101000a81548173ffffffffffffffffffffffffffffffffffffffff021916908373ffffffffffffffffffffffffffffffffffffffff160217905550610407806100606000396000f30060806040526004361061006d576000357c0100000000000000000000000000000000000000000000000000000000900463ffffffff1680632ddbd13a146100725780634a5e42b11461009d57806373f02d3d146100e05780638da5cb5b14610137578063b434283f1461018e575b600080fd5b34801561007e57600080fd5b506100876101e5565b6040518082815260200191505060405180910390f35b3480156100a957600080fd5b506100de600480360381019080803573ffffffffffffffffffffffffffffffffffffffff1690602001909291905050506101eb565b005b3480156100ec57600080fd5b50610121600480360381019080803573ffffffffffffffffffffffffffffffffffffffff1690602001909291905050506102ab565b6040518082815260200191505060405180910390f35b34801561014357600080fd5b5061014c6102c3565b604051808273ffffffffffffffffffffffffffffffffffffffff1673ffffffffffffffffffffffffffffffffffffffff16815260200191505060405180910390f35b34801561019a57600080fd5b506101e3600480360381019080803573ffffffffffffffffffffffffffffffffffffffff169060200190929190803567ffffffffffffffff1690602001909291905050506102e8565b005b60015481565b600260008273ffffffffffffffffffffffffffffffffffffffff1673ffffffffffffffffffffffffffffffffffffffff168152602001908152602001600020600090558073ffffffffffffffffffffffffffffffffffffffff167f0fa1e4606af435f32f05b3804033d2933e691fab32ee74d2db6fa82d2741f1ea33604051808273ffffffffffffffffffffffffffffffffffffffff1673ffffffffffffffffffffffffffffffffffffffff16815260200191505060405180910390a250565b60026020528060005260406000206000915090505481565b6000809054906101000a900473ffffffffffffffffffffffffffffffffffffffff1681565b8067ffffffffffffffff16600260008473ffffffffffffffffffffffffffffffffffffffff1673ffffffffffffffffffffffffffffffffffffffff1681526020019081526020016000208190555060018054016001819055508173ffffffffffffffffffffffffffffffffffffffff167f9f8ac3bd4dafeee4322998d9f3b2e6d3ddceee9433f65f2ffa246c18d579afe68233604051808367ffffffffffffffff1667ffffffffffffffff1681526020018273ffffffffffffffffffffffffffffffffffffffff1673ffffffffffffffffffffffffffffffffffffffff1681526020019250505060405180910390a250505600a165627a7a7230582030cd01f43f9fff37da1470e2972b899bd65671e3484934ca3906e911b45d7f910029",
  "source": "pragma solidity ^0.4.24;\r\n\r\n/**\r\n * @title ImageRegistry\r\n * @dev A quick example contract to show dapp interactions with events\r\n */\r\ncontract ImageRegistry {\r\n  address public owner;\r\n  uint public total;\r\n\r\n  /// @dev Events\r\n  event AssetAdded(address indexed ref, uint64 id, address sender);\r\n  event AssetRemoved(address indexed ref, address sender);\r\n\r\n  mapping(address => uint) public allAssets;\r\n\r\n  constructor() public {\r\n    owner = msg.sender;\r\n  }\r\n\r\n  // Add new Image\r\n  function addAsset(address ref, uint64 id) public {\r\n    allAssets[ref] = id;\r\n    total = total + 1;\r\n    emit AssetAdded(ref, id, msg.sender);\r\n  }\r\n\r\n  function removeAsset(address ref) public {\r\n    delete allAssets[ref];\r\n    emit AssetRemoved(ref, msg.sender);\r\n  }\r\n}\r\n",
  "sourcePath": "/Users/trevorclarke/gitlab/trufflecon-demo-dapp/contracts/ImageRegistry.sol",
  "compiler": {
    "name": "solc",
    "version": "0.4.24+commit.e67f0147.Emscripten.clang"
  },
  "schemaVersion": "2.0.1",
  "updatedAt": "2018-10-05T05:30:11.766Z"
}